{
  "address": "0x610178dA211FEF7D417bC0e6FeD39F05609AD788",
  "abi": [
    {
      "inputs": [
        {
          "internalType": "uint256",
          "name": "maxSupply_",
          "type": "uint256"
        },
        {
          "internalType": "uint256",
          "name": "price_",
          "type": "uint256"
        },
        {
          "internalType": "address",
          "name": "farmAddress_",
          "type": "address"
        },
        {
          "internalType": "address",
          "name": "teamAddress_",
          "type": "address"
        },
        {
          "internalType": "address",
          "name": "frogNFTAddress_",
          "type": "address"
        },
        {
          "internalType": "string",
          "name": "tokenURI_",
          "type": "string"
        }
      ],
      "stateMutability": "nonpayable",
      "type": "constructor"
    },
    {
      "anonymous": false,
      "inputs": [
        {
          "indexed": true,
          "internalType": "address",
          "name": "owner",
          "type": "address"
        },
        {
          "indexed": true,
          "internalType": "address",
          "name": "approved",
          "type": "address"
        },
        {
          "indexed": true,
          "internalType": "uint256",
          "name": "tokenId",
          "type": "uint256"
        }
      ],
      "name": "Approval",
      "type": "event"
    },
    {
      "anonymous": false,
      "inputs": [
        {
          "indexed": true,
          "internalType": "address",
          "name": "owner",
          "type": "address"
        },
        {
          "indexed": true,
          "internalType": "address",
          "name": "operator",
          "type": "address"
        },
        {
          "indexed": false,
          "internalType": "bool",
          "name": "approved",
          "type": "bool"
        }
      ],
      "name": "ApprovalForAll",
      "type": "event"
    },
    {
      "anonymous": false,
      "inputs": [
        {
          "indexed": true,
          "internalType": "address",
          "name": "previousOwner",
          "type": "address"
        },
        {
          "indexed": true,
          "internalType": "address",
          "name": "newOwner",
          "type": "address"
        }
      ],
      "name": "OwnershipTransferred",
      "type": "event"
    },
    {
      "anonymous": false,
      "inputs": [
        {
          "indexed": true,
          "internalType": "address",
          "name": "owner",
          "type": "address"
        },
        {
          "indexed": true,
          "internalType": "uint256",
          "name": "tokenId",
          "type": "uint256"
        },
        {
          "indexed": false,
          "internalType": "uint256",
          "name": "reward",
          "type": "uint256"
        }
      ],
      "name": "RewardClaimed",
      "type": "event"
    },
    {
      "anonymous": false,
      "inputs": [
        {
          "indexed": true,
          "internalType": "address",
          "name": "from",
          "type": "address"
        },
        {
          "indexed": true,
          "internalType": "address",
          "name": "to",
          "type": "address"
        },
        {
          "indexed": true,
          "internalType": "uint256",
          "name": "tokenId",
          "type": "uint256"
        }
      ],
      "name": "Transfer",
      "type": "event"
    },
    {
      "inputs": [
        {
          "internalType": "address",
          "name": "to",
          "type": "address"
        },
        {
          "internalType": "uint256",
          "name": "tokenId",
          "type": "uint256"
        }
      ],
      "name": "approve",
      "outputs": [],
      "stateMutability": "nonpayable",
      "type": "function"
    },
    {
      "inputs": [
        {
          "internalType": "address",
          "name": "owner",
          "type": "address"
        }
      ],
      "name": "balanceOf",
      "outputs": [
        {
          "internalType": "uint256",
          "name": "",
          "type": "uint256"
        }
      ],
      "stateMutability": "view",
      "type": "function"
    },
    {
      "inputs": [
        {
          "internalType": "uint256",
          "name": "tokenId",
          "type": "uint256"
        }
      ],
      "name": "claimReward",
      "outputs": [],
      "stateMutability": "nonpayable",
      "type": "function"
    },
    {
      "inputs": [],
      "name": "claimRewards",
      "outputs": [],
      "stateMutability": "nonpayable",
      "type": "function"
    },
    {
      "inputs": [
        {
          "internalType": "uint256",
          "name": "",
          "type": "uint256"
        }
      ],
      "name": "claimed",
      "outputs": [
        {
          "internalType": "uint256",
          "name": "",
          "type": "uint256"
        }
      ],
      "stateMutability": "view",
      "type": "function"
    },
    {
      "inputs": [],
      "name": "farmAddress",
      "outputs": [
        {
          "internalType": "address",
          "name": "",
          "type": "address"
        }
      ],
      "stateMutability": "view",
      "type": "function"
    },
    {
      "inputs": [],
      "name": "frogNFT",
      "outputs": [
        {
          "internalType": "contract IERC721",
          "name": "",
          "type": "address"
        }
      ],
      "stateMutability": "view",
      "type": "function"
    },
    {
      "inputs": [
        {
          "internalType": "uint256",
          "name": "tokenId",
          "type": "uint256"
        }
      ],
      "name": "getApproved",
      "outputs": [
        {
          "internalType": "address",
          "name": "",
          "type": "address"
        }
      ],
      "stateMutability": "view",
      "type": "function"
    },
    {
      "inputs": [
        {
          "internalType": "uint256",
          "name": "tokenId",
          "type": "uint256"
        }
      ],
      "name": "getReward",
      "outputs": [
        {
          "internalType": "uint256",
          "name": "",
          "type": "uint256"
        }
      ],
      "stateMutability": "view",
      "type": "function"
    },
    {
      "inputs": [
        {
          "internalType": "address",
          "name": "account",
          "type": "address"
        }
      ],
      "name": "getRewards",
      "outputs": [
        {
          "internalType": "uint256",
          "name": "",
          "type": "uint256"
        }
      ],
      "stateMutability": "view",
      "type": "function"
    },
    {
      "inputs": [
        {
          "internalType": "address",
          "name": "account",
          "type": "address"
        }
      ],
      "name": "hasDiscount",
      "outputs": [
        {
          "internalType": "bool",
          "name": "",
          "type": "bool"
        }
      ],
      "stateMutability": "view",
      "type": "function"
    },
    {
      "inputs": [
        {
          "internalType": "address",
          "name": "owner",
          "type": "address"
        },
        {
          "internalType": "address",
          "name": "operator",
          "type": "address"
        }
      ],
      "name": "isApprovedForAll",
      "outputs": [
        {
          "internalType": "bool",
          "name": "",
          "type": "bool"
        }
      ],
      "stateMutability": "view",
      "type": "function"
    },
    {
      "inputs": [],
      "name": "maxSupply",
      "outputs": [
        {
          "internalType": "uint256",
          "name": "",
          "type": "uint256"
        }
      ],
      "stateMutability": "view",
      "type": "function"
    },
    {
      "inputs": [
        {
          "internalType": "uint256",
          "name": "total",
          "type": "uint256"
        }
      ],
      "name": "mint",
      "outputs": [],
      "stateMutability": "payable",
      "type": "function"
    },
    {
      "inputs": [],
      "name": "name",
      "outputs": [
        {
          "internalType": "string",
          "name": "",
          "type": "string"
        }
      ],
      "stateMutability": "view",
      "type": "function"
    },
    {
      "inputs": [],
      "name": "nextTokenId",
      "outputs": [
        {
          "internalType": "uint256",
          "name": "",
          "type": "uint256"
        }
      ],
      "stateMutability": "view",
      "type": "function"
    },
    {
      "inputs": [],
      "name": "owner",
      "outputs": [
        {
          "internalType": "address",
          "name": "",
          "type": "address"
        }
      ],
      "stateMutability": "view",
      "type": "function"
    },
    {
      "inputs": [
        {
          "internalType": "uint256",
          "name": "tokenId",
          "type": "uint256"
        }
      ],
      "name": "ownerOf",
      "outputs": [
        {
          "internalType": "address",
          "name": "",
          "type": "address"
        }
      ],
      "stateMutability": "view",
      "type": "function"
    },
    {
      "inputs": [],
      "name": "price",
      "outputs": [
        {
          "internalType": "uint256",
          "name": "",
          "type": "uint256"
        }
      ],
      "stateMutability": "view",
      "type": "function"
    },
    {
      "inputs": [],
      "name": "renounceOwnership",
      "outputs": [],
      "stateMutability": "nonpayable",
      "type": "function"
    },
    {
      "inputs": [
        {
          "internalType": "address",
          "name": "from",
          "type": "address"
        },
        {
          "internalType": "address",
          "name": "to",
          "type": "address"
        },
        {
          "internalType": "uint256",
          "name": "tokenId",
          "type": "uint256"
        }
      ],
      "name": "safeTransferFrom",
      "outputs": [],
      "stateMutability": "nonpayable",
      "type": "function"
    },
    {
      "inputs": [
        {
          "internalType": "address",
          "name": "from",
          "type": "address"
        },
        {
          "internalType": "address",
          "name": "to",
          "type": "address"
        },
        {
          "internalType": "uint256",
          "name": "tokenId",
          "type": "uint256"
        },
        {
          "internalType": "bytes",
          "name": "_data",
          "type": "bytes"
        }
      ],
      "name": "safeTransferFrom",
      "outputs": [],
      "stateMutability": "nonpayable",
      "type": "function"
    },
    {
      "inputs": [
        {
          "internalType": "address",
          "name": "operator",
          "type": "address"
        },
        {
          "internalType": "bool",
          "name": "approved",
          "type": "bool"
        }
      ],
      "name": "setApprovalForAll",
      "outputs": [],
      "stateMutability": "nonpayable",
      "type": "function"
    },
    {
      "inputs": [
        {
          "internalType": "uint256",
          "name": "price_",
          "type": "uint256"
        }
      ],
      "name": "setPrice",
      "outputs": [],
      "stateMutability": "nonpayable",
      "type": "function"
    },
    {
      "inputs": [
        {
          "internalType": "string",
          "name": "tokenURI_",
          "type": "string"
        }
      ],
      "name": "setTokenURI",
      "outputs": [],
      "stateMutability": "nonpayable",
      "type": "function"
    },
    {
      "inputs": [
        {
          "internalType": "bytes4",
          "name": "interfaceId",
          "type": "bytes4"
        }
      ],
      "name": "supportsInterface",
      "outputs": [
        {
          "internalType": "bool",
          "name": "",
          "type": "bool"
        }
      ],
      "stateMutability": "view",
      "type": "function"
    },
    {
      "inputs": [],
      "name": "symbol",
      "outputs": [
        {
          "internalType": "string",
          "name": "",
          "type": "string"
        }
      ],
      "stateMutability": "view",
      "type": "function"
    },
    {
      "inputs": [],
      "name": "teamAddress",
      "outputs": [
        {
          "internalType": "address",
          "name": "",
          "type": "address"
        }
      ],
      "stateMutability": "view",
      "type": "function"
    },
    {
      "inputs": [
        {
          "internalType": "uint256",
          "name": "index",
          "type": "uint256"
        }
      ],
      "name": "tokenByIndex",
      "outputs": [
        {
          "internalType": "uint256",
          "name": "",
          "type": "uint256"
        }
      ],
      "stateMutability": "view",
      "type": "function"
    },
    {
      "inputs": [
        {
          "internalType": "address",
          "name": "owner",
          "type": "address"
        },
        {
          "internalType": "uint256",
          "name": "index",
          "type": "uint256"
        }
      ],
      "name": "tokenOfOwnerByIndex",
      "outputs": [
        {
          "internalType": "uint256",
          "name": "",
          "type": "uint256"
        }
      ],
      "stateMutability": "view",
      "type": "function"
    },
    {
      "inputs": [
        {
          "internalType": "uint256",
          "name": "tokenId",
          "type": "uint256"
        }
      ],
      "name": "tokenURI",
      "outputs": [
        {
          "internalType": "string",
          "name": "",
          "type": "string"
        }
      ],
      "stateMutability": "view",
      "type": "function"
    },
    {
      "inputs": [],
      "name": "totalSupply",
      "outputs": [
        {
          "internalType": "uint256",
          "name": "",
          "type": "uint256"
        }
      ],
      "stateMutability": "view",
      "type": "function"
    },
    {
      "inputs": [
        {
          "internalType": "address",
          "name": "from",
          "type": "address"
        },
        {
          "internalType": "address",
          "name": "to",
          "type": "address"
        },
        {
          "internalType": "uint256",
          "name": "tokenId",
          "type": "uint256"
        }
      ],
      "name": "transferFrom",
      "outputs": [],
      "stateMutability": "nonpayable",
      "type": "function"
    },
    {
      "inputs": [
        {
          "internalType": "address",
          "name": "newOwner",
          "type": "address"
        }
      ],
      "name": "transferOwnership",
      "outputs": [],
      "stateMutability": "nonpayable",
      "type": "function"
    }
  ],
  "transactionHash": "0x0ad767bbb6529027b752c3e754ef82ccb2a5c531387dba33ea6b57bf96ebb0bc",
  "args": [
    100,
    "20000000000000000000",
    "0x9965507D1a55bcC2695C58ba16FB37d819B0A4dc",
    "0x15d34AAf54267DB7D7c367839AAf71A00a2C6A65",
    "0x8A791620dd6260079BF849Dc5567aDC3F2FdC318",
    "https://token.com"
  ],
  "numDeployments": 1,
  "solcInputHash": "cdfa3a711a7095d49b17eadbaae43ba2",
  "bytecode": "0x60806040526001600d553480156200001657600080fd5b506040516200268b3803806200268b833981016040819052620000399162000242565b60408051808201825260038082526213919560ea1b602080840182815285518087019096529285528401528151919291620000779160009162000169565b5080516200008d90600190602084019062000169565b505050620000aa620000a46200011360201b60201c565b62000117565b600b869055600c859055601080546001600160a01b038087166001600160a01b03199283161790925560118054868416908316179055600f80549285169290911691909117905580516200010690601290602084019062000169565b50505050505050620003a8565b3390565b600a80546001600160a01b038381166001600160a01b0319831681179093556040519116919082907f8be0079c531659141344cd1fd0a4f28419497f9722a3daafe3b4186f6b6457e090600090a35050565b82805462000177906200036b565b90600052602060002090601f0160209004810192826200019b5760008555620001e6565b82601f10620001b657805160ff1916838001178555620001e6565b82800160010185558215620001e6579182015b82811115620001e6578251825591602001919060010190620001c9565b50620001f4929150620001f8565b5090565b5b80821115620001f45760008155600101620001f9565b80516001600160a01b03811681146200022757600080fd5b919050565b634e487b7160e01b600052604160045260246000fd5b60008060008060008060c087890312156200025c57600080fd5b86519550602080880151955062000276604089016200020f565b945062000286606089016200020f565b935062000296608089016200020f565b60a08901519093506001600160401b0380821115620002b457600080fd5b818a0191508a601f830112620002c957600080fd5b815181811115620002de57620002de6200022c565b604051601f8201601f19908116603f011681019083821181831017156200030957620003096200022c565b816040528281528d868487010111156200032257600080fd5b600093505b8284101562000346578484018601518185018701529285019262000327565b82841115620003585760008684830101525b8096505050505050509295509295509295565b600181811c908216806200038057607f821691505b60208210811415620003a257634e487b7160e01b600052602260045260246000fd5b50919050565b6122d380620003b86000396000f3fe6080604052600436106101f95760003560e01c80638da5cb5b1161010d578063c87b56dd116100a0578063e0df5b6f1161006f578063e0df5b6f1461058d578063e575cc2d146105ad578063e985e9c5146105cd578063f2fde38b14610616578063f9da3f751461063657600080fd5b8063c87b56dd1461050a578063d34de0991461052a578063d5abeb011461054a578063dbe7e3bd1461056057600080fd5b8063a0712d68116100dc578063a0712d6814610497578063a22cb465146104aa578063ae169a50146104ca578063b88d4fde146104ea57600080fd5b80638da5cb5b1461042e57806391b7f5ed1461044c57806395d89b411461046c578063a035b1fe1461048157600080fd5b80632f745c59116101905780636352211e1161015f5780636352211e146103a357806370a08231146103c3578063715018a6146103e357806375794a3c146103f857806379ee54f71461040e57600080fd5b80632f745c591461032e578063372500ab1461034e57806342842e0e146103635780634f6ccce71461038357600080fd5b806318160ddd116101cc57806318160ddd146102af5780631c4b774b146102ce5780631c75f085146102ee57806323b872dd1461030e57600080fd5b806301ffc9a7146101fe57806306fdde0314610233578063081812fc14610255578063095ea7b31461028d575b600080fd5b34801561020a57600080fd5b5061021e610219366004611d3d565b610656565b60405190151581526020015b60405180910390f35b34801561023f57600080fd5b50610248610681565b60405161022a9190611dae565b34801561026157600080fd5b50610275610270366004611dc1565b610713565b6040516001600160a01b03909116815260200161022a565b34801561029957600080fd5b506102ad6102a8366004611df6565b6107ad565b005b3480156102bb57600080fd5b506008545b60405190815260200161022a565b3480156102da57600080fd5b506102c06102e9366004611dc1565b6108c3565b3480156102fa57600080fd5b50601154610275906001600160a01b031681565b34801561031a57600080fd5b506102ad610329366004611e20565b6108ce565b34801561033a57600080fd5b506102c0610349366004611df6565b6108ff565b34801561035a57600080fd5b506102ad610995565b34801561036f57600080fd5b506102ad61037e366004611e20565b6109db565b34801561038f57600080fd5b506102c061039e366004611dc1565b6109f6565b3480156103af57600080fd5b506102756103be366004611dc1565b610a89565b3480156103cf57600080fd5b506102c06103de366004611e5c565b610b00565b3480156103ef57600080fd5b506102ad610b87565b34801561040457600080fd5b506102c0600d5481565b34801561041a57600080fd5b506102c0610429366004611e5c565b610bbd565b34801561043a57600080fd5b50600a546001600160a01b0316610275565b34801561045857600080fd5b506102ad610467366004611dc1565b610c18565b34801561047857600080fd5b50610248610c47565b34801561048d57600080fd5b506102c0600c5481565b6102ad6104a5366004611dc1565b610c56565b3480156104b657600080fd5b506102ad6104c5366004611e77565b610ec2565b3480156104d657600080fd5b506102ad6104e5366004611dc1565b610ecd565b3480156104f657600080fd5b506102ad610505366004611ec9565b610ed9565b34801561051657600080fd5b50610248610525366004611dc1565b610f11565b34801561053657600080fd5b50600f54610275906001600160a01b031681565b34801561055657600080fd5b506102c0600b5481565b34801561056c57600080fd5b506102c061057b366004611dc1565b600e6020526000908152604090205481565b34801561059957600080fd5b506102ad6105a8366004611fa5565b611022565b3480156105b957600080fd5b5061021e6105c8366004611e5c565b611058565b3480156105d957600080fd5b5061021e6105e8366004612017565b6001600160a01b03918216600090815260056020908152604080832093909416825291909152205460ff1690565b34801561062257600080fd5b506102ad610631366004611e5c565b6110d1565b34801561064257600080fd5b50601054610275906001600160a01b031681565b60006001600160e01b0319821663780e9d6360e01b148061067b575061067b82611169565b92915050565b6060600080546106909061204a565b80601f01602080910402602001604051908101604052809291908181526020018280546106bc9061204a565b80156107095780601f106106de57610100808354040283529160200191610709565b820191906000526020600020905b8154815290600101906020018083116106ec57829003601f168201915b5050505050905090565b6000818152600260205260408120546001600160a01b03166107915760405162461bcd60e51b815260206004820152602c60248201527f4552433732313a20617070726f76656420717565727920666f72206e6f6e657860448201526b34b9ba32b73a103a37b5b2b760a11b60648201526084015b60405180910390fd5b506000908152600460205260409020546001600160a01b031690565b60006107b882610a89565b9050806001600160a01b0316836001600160a01b031614156108265760405162461bcd60e51b815260206004820152602160248201527f4552433732313a20617070726f76616c20746f2063757272656e74206f776e656044820152603960f91b6064820152608401610788565b336001600160a01b0382161480610842575061084281336105e8565b6108b45760405162461bcd60e51b815260206004820152603860248201527f4552433732313a20617070726f76652063616c6c6572206973206e6f74206f7760448201527f6e6572206e6f7220617070726f76656420666f7220616c6c00000000000000006064820152608401610788565b6108be83836111b9565b505050565b600061067b82611227565b6108d833826112af565b6108f45760405162461bcd60e51b815260040161078890612085565b6108be8383836113a6565b600061090a83610b00565b821061096c5760405162461bcd60e51b815260206004820152602b60248201527f455243373231456e756d657261626c653a206f776e657220696e646578206f7560448201526a74206f6620626f756e647360a81b6064820152608401610788565b506001600160a01b03919091166000908152600660209081526040808320938352929052205490565b60006109a033610b00565b905060005b818110156109d75760006109b933836108ff565b90506109c481611551565b50806109cf816120ec565b9150506109a5565b5050565b6108be83838360405180602001604052806000815250610ed9565b6000610a0160085490565b8210610a645760405162461bcd60e51b815260206004820152602c60248201527f455243373231456e756d657261626c653a20676c6f62616c20696e646578206f60448201526b7574206f6620626f756e647360a01b6064820152608401610788565b60088281548110610a7757610a77612107565b90600052602060002001549050919050565b6000818152600260205260408120546001600160a01b03168061067b5760405162461bcd60e51b815260206004820152602960248201527f4552433732313a206f776e657220717565727920666f72206e6f6e657869737460448201526832b73a103a37b5b2b760b91b6064820152608401610788565b60006001600160a01b038216610b6b5760405162461bcd60e51b815260206004820152602a60248201527f4552433732313a2062616c616e636520717565727920666f7220746865207a65604482015269726f206164647265737360b01b6064820152608401610788565b506001600160a01b031660009081526003602052604090205490565b600a546001600160a01b03163314610bb15760405162461bcd60e51b81526004016107889061211d565b610bbb6000611659565b565b6000806000610bcb84610b00565b905060005b81811015610c0f576000610be486836108ff565b9050610bef81611227565b610bf99085612152565b9350508080610c07906120ec565b915050610bd0565b50909392505050565b600a546001600160a01b03163314610c425760405162461bcd60e51b81526004016107889061211d565b600c55565b6060600180546106909061204a565b60008111610c9b5760405162461bcd60e51b81526020600482015260126024820152714d696e7420746f74616c206973207a65726f60701b6044820152606401610788565b600181600d54610cab9190612152565b610cb5919061216a565b600b541015610cff5760405162461bcd60e51b81526020600482015260166024820152754d696e7420657863656564206d617820737570706c7960501b6044820152606401610788565b600081600c54610d0f9190612181565b90506000610d1c33611058565b610d27576000610d3f565b6103e8610d35603284612181565b610d3f91906121a0565b9050610d4b818361216a565b341015610d9a5760405162461bcd60e51b815260206004820152601960248201527f56616c75652073656e74206973206e6f7420636f7272656374000000000000006044820152606401610788565b60005b83811015610dce57610dbc3382600d54610db79190612152565b6116ab565b80610dc6816120ec565b915050610d9d565b5082600d6000828254610de19190612152565b90915550600090506103e8610df86101f485612181565b610e0291906121a0565b90506000826103e8610e1661019087612181565b610e2091906121a0565b610e2a919061216a565b9050600081610e39843461216a565b610e43919061216a565b6011546040519192506001600160a01b03169082156108fc029083906000818181858888f19350505050158015610e7e573d6000803e3d6000fd5b506010546040516001600160a01b039091169083156108fc029084906000818181858888f19350505050158015610eb9573d6000803e3d6000fd5b50505050505050565b6109d73383836116c5565b610ed681611551565b50565b610ee333836112af565b610eff5760405162461bcd60e51b815260040161078890612085565b610f0b84848484611794565b50505050565b6000818152600260205260409020546060906001600160a01b0316610f905760405162461bcd60e51b815260206004820152602f60248201527f4552433732314d657461646174613a2055524920717565727920666f72206e6f60448201526e3732bc34b9ba32b73a103a37b5b2b760891b6064820152608401610788565b60128054610f9d9061204a565b80601f0160208091040260200160405190810160405280929190818152602001828054610fc99061204a565b80156110165780601f10610feb57610100808354040283529160200191611016565b820191906000526020600020905b815481529060010190602001808311610ff957829003601f168201915b50505050509050919050565b600a546001600160a01b0316331461104c5760405162461bcd60e51b81526004016107889061211d565b6108be60128383611c8e565b600f546040516370a0823160e01b81526001600160a01b03838116600483015260009283929116906370a0823190602401602060405180830381865afa1580156110a6573d6000803e3d6000fd5b505050506040513d601f19601f820116820180604052508101906110ca91906121c2565b1192915050565b600a546001600160a01b031633146110fb5760405162461bcd60e51b81526004016107889061211d565b6001600160a01b0381166111605760405162461bcd60e51b815260206004820152602660248201527f4f776e61626c653a206e6577206f776e657220697320746865207a65726f206160448201526564647265737360d01b6064820152608401610788565b610ed681611659565b60006001600160e01b031982166380ac58cd60e01b148061119a57506001600160e01b03198216635b5e139f60e01b145b8061067b57506301ffc9a760e01b6001600160e01b031983161461067b565b600081815260046020526040902080546001600160a01b0319166001600160a01b03841690811790915581906111ee82610a89565b6001600160a01b03167f8c5be1e5ebec7d5bd14f71427d1e84f3dd0314c0f7b2291e5b200ac8c7c3b92560405160405180910390a45050565b600080600183600d5461123a919061216a565b611244919061216a565b9050600a8111156112535750600a5b6000600a6103e86101f4600c548561126b9190612181565b6112759190612181565b61127f91906121a0565b61128991906121a0565b6000858152600e6020526040812054919250906112a6908361216a565b95945050505050565b6000818152600260205260408120546001600160a01b03166113285760405162461bcd60e51b815260206004820152602c60248201527f4552433732313a206f70657261746f7220717565727920666f72206e6f6e657860448201526b34b9ba32b73a103a37b5b2b760a11b6064820152608401610788565b600061133383610a89565b9050806001600160a01b0316846001600160a01b0316148061136e5750836001600160a01b031661136384610713565b6001600160a01b0316145b8061139e57506001600160a01b0380821660009081526005602090815260408083209388168352929052205460ff165b949350505050565b826001600160a01b03166113b982610a89565b6001600160a01b0316146114215760405162461bcd60e51b815260206004820152602960248201527f4552433732313a207472616e73666572206f6620746f6b656e2074686174206960448201526839903737ba1037bbb760b91b6064820152608401610788565b6001600160a01b0382166114835760405162461bcd60e51b8152602060048201526024808201527f4552433732313a207472616e7366657220746f20746865207a65726f206164646044820152637265737360e01b6064820152608401610788565b61148e8383836117c7565b6114996000826111b9565b6001600160a01b03831660009081526003602052604081208054600192906114c290849061216a565b90915550506001600160a01b03821660009081526003602052604081208054600192906114f0908490612152565b909155505060008181526002602052604080822080546001600160a01b0319166001600160a01b0386811691821790925591518493918716917fddf252ad1be2c89b69c2b068fc378daa952ba7f163c4a11628f55a4df523b3ef91a4505050565b61155a81610a89565b6001600160a01b0316336001600160a01b0316146115ba5760405162461bcd60e51b815260206004820152601d60248201527f63616c6c6572206973206e6f742074686520746f6b656e206f776e65720000006044820152606401610788565b60006115c582611227565b905080156109d7576000828152600e6020526040812080548392906115eb908490612152565b9091555050604051339082156108fc029083906000818181858888f1935050505015801561161d573d6000803e3d6000fd5b50604051818152829033907ff01da32686223933d8a18a391060918c7f11a3648639edd87ae013e2e27317439060200160405180910390a35050565b600a80546001600160a01b038381166001600160a01b0319831681179093556040519116919082907f8be0079c531659141344cd1fd0a4f28419497f9722a3daafe3b4186f6b6457e090600090a35050565b6109d782826040518060200160405280600081525061187f565b816001600160a01b0316836001600160a01b031614156117275760405162461bcd60e51b815260206004820152601960248201527f4552433732313a20617070726f766520746f2063616c6c6572000000000000006044820152606401610788565b6001600160a01b03838116600081815260056020908152604080832094871680845294825291829020805460ff191686151590811790915591519182527f17307eab39ab6107e8899845ad3d59bd9653f200f220920489ca2b5937696c31910160405180910390a3505050565b61179f8484846113a6565b6117ab848484846118b2565b610f0b5760405162461bcd60e51b8152600401610788906121db565b6001600160a01b0383166118225761181d81600880546000838152600960205260408120829055600182018355919091527ff3f7a9fe364faab93b216da50a3214154f22a0a2b415b23a84c8169e8b636ee30155565b611845565b816001600160a01b0316836001600160a01b0316146118455761184583826119b0565b6001600160a01b03821661185c576108be81611a4d565b826001600160a01b0316826001600160a01b0316146108be576108be8282611afc565b6118898383611b40565b61189660008484846118b2565b6108be5760405162461bcd60e51b8152600401610788906121db565b60006001600160a01b0384163b156119a557604051630a85bd0160e11b81526001600160a01b0385169063150b7a02906118f690339089908890889060040161222d565b6020604051808303816000875af1925050508015611931575060408051601f3d908101601f1916820190925261192e9181019061226a565b60015b61198b573d80801561195f576040519150601f19603f3d011682016040523d82523d6000602084013e611964565b606091505b5080516119835760405162461bcd60e51b8152600401610788906121db565b805181602001fd5b6001600160e01b031916630a85bd0160e11b14905061139e565b506001949350505050565b600060016119bd84610b00565b6119c7919061216a565b600083815260076020526040902054909150808214611a1a576001600160a01b03841660009081526006602090815260408083208584528252808320548484528184208190558352600790915290208190555b5060009182526007602090815260408084208490556001600160a01b039094168352600681528383209183525290812055565b600854600090611a5f9060019061216a565b60008381526009602052604081205460088054939450909284908110611a8757611a87612107565b906000526020600020015490508060088381548110611aa857611aa8612107565b6000918252602080832090910192909255828152600990915260408082208490558582528120556008805480611ae057611ae0612287565b6001900381819060005260206000200160009055905550505050565b6000611b0783610b00565b6001600160a01b039093166000908152600660209081526040808320868452825280832085905593825260079052919091209190915550565b6001600160a01b038216611b965760405162461bcd60e51b815260206004820181905260248201527f4552433732313a206d696e7420746f20746865207a65726f20616464726573736044820152606401610788565b6000818152600260205260409020546001600160a01b031615611bfb5760405162461bcd60e51b815260206004820152601c60248201527f4552433732313a20746f6b656e20616c7265616479206d696e746564000000006044820152606401610788565b611c07600083836117c7565b6001600160a01b0382166000908152600360205260408120805460019290611c30908490612152565b909155505060008181526002602052604080822080546001600160a01b0319166001600160a01b03861690811790915590518392907fddf252ad1be2c89b69c2b068fc378daa952ba7f163c4a11628f55a4df523b3ef908290a45050565b828054611c9a9061204a565b90600052602060002090601f016020900481019282611cbc5760008555611d02565b82601f10611cd55782800160ff19823516178555611d02565b82800160010185558215611d02579182015b82811115611d02578235825591602001919060010190611ce7565b50611d0e929150611d12565b5090565b5b80821115611d0e5760008155600101611d13565b6001600160e01b031981168114610ed657600080fd5b600060208284031215611d4f57600080fd5b8135611d5a81611d27565b9392505050565b6000815180845260005b81811015611d8757602081850181015186830182015201611d6b565b81811115611d99576000602083870101525b50601f01601f19169290920160200192915050565b602081526000611d5a6020830184611d61565b600060208284031215611dd357600080fd5b5035919050565b80356001600160a01b0381168114611df157600080fd5b919050565b60008060408385031215611e0957600080fd5b611e1283611dda565b946020939093013593505050565b600080600060608486031215611e3557600080fd5b611e3e84611dda565b9250611e4c60208501611dda565b9150604084013590509250925092565b600060208284031215611e6e57600080fd5b611d5a82611dda565b60008060408385031215611e8a57600080fd5b611e9383611dda565b915060208301358015158114611ea857600080fd5b809150509250929050565b634e487b7160e01b600052604160045260246000fd5b60008060008060808587031215611edf57600080fd5b611ee885611dda565b9350611ef660208601611dda565b925060408501359150606085013567ffffffffffffffff80821115611f1a57600080fd5b818701915087601f830112611f2e57600080fd5b813581811115611f4057611f40611eb3565b604051601f8201601f19908116603f01168101908382118183101715611f6857611f68611eb3565b816040528281528a6020848701011115611f8157600080fd5b82602086016020830137600060208483010152809550505050505092959194509250565b60008060208385031215611fb857600080fd5b823567ffffffffffffffff80821115611fd057600080fd5b818501915085601f830112611fe457600080fd5b813581811115611ff357600080fd5b86602082850101111561200557600080fd5b60209290920196919550909350505050565b6000806040838503121561202a57600080fd5b61203383611dda565b915061204160208401611dda565b90509250929050565b600181811c9082168061205e57607f821691505b6020821081141561207f57634e487b7160e01b600052602260045260246000fd5b50919050565b60208082526031908201527f4552433732313a207472616e736665722063616c6c6572206973206e6f74206f6040820152701ddb995c881b9bdc88185c1c1c9bdd9959607a1b606082015260800190565b634e487b7160e01b600052601160045260246000fd5b6000600019821415612100576121006120d6565b5060010190565b634e487b7160e01b600052603260045260246000fd5b6020808252818101527f4f776e61626c653a2063616c6c6572206973206e6f7420746865206f776e6572604082015260600190565b60008219821115612165576121656120d6565b500190565b60008282101561217c5761217c6120d6565b500390565b600081600019048311821515161561219b5761219b6120d6565b500290565b6000826121bd57634e487b7160e01b600052601260045260246000fd5b500490565b6000602082840312156121d457600080fd5b5051919050565b60208082526032908201527f4552433732313a207472616e7366657220746f206e6f6e20455243373231526560408201527131b2b4bb32b91034b6b83632b6b2b73a32b960711b606082015260800190565b6001600160a01b038581168252841660208201526040810183905260806060820181905260009061226090830184611d61565b9695505050505050565b60006020828403121561227c57600080fd5b8151611d5a81611d27565b634e487b7160e01b600052603160045260246000fdfea2646970667358221220172688a8b5d41584c098340173475e210bbdf9c4db40fc74f8014de5b6656f1564736f6c634300080b0033",
  "devdoc": {
    "kind": "dev",
    "methods": {
      "approve(address,uint256)": {
        "details": "See {IERC721-approve}."
      },
      "balanceOf(address)": {
        "details": "See {IERC721-balanceOf}."
      },
      "getApproved(uint256)": {
        "details": "See {IERC721-getApproved}."
      },
      "isApprovedForAll(address,address)": {
        "details": "See {IERC721-isApprovedForAll}."
      },
      "name()": {
        "details": "See {IERC721Metadata-name}."
      },
      "owner()": {
        "details": "Returns the address of the current owner."
      },
      "ownerOf(uint256)": {
        "details": "See {IERC721-ownerOf}."
      },
      "renounceOwnership()": {
        "details": "Leaves the contract without owner. It will not be possible to call `onlyOwner` functions anymore. Can only be called by the current owner. NOTE: Renouncing ownership will leave the contract without an owner, thereby removing any functionality that is only available to the owner."
      },
      "safeTransferFrom(address,address,uint256)": {
        "details": "See {IERC721-safeTransferFrom}."
      },
      "safeTransferFrom(address,address,uint256,bytes)": {
        "details": "See {IERC721-safeTransferFrom}."
      },
      "setApprovalForAll(address,bool)": {
        "details": "See {IERC721-setApprovalForAll}."
      },
      "supportsInterface(bytes4)": {
        "details": "See {IERC165-supportsInterface}."
      },
      "symbol()": {
        "details": "See {IERC721Metadata-symbol}."
      },
      "tokenByIndex(uint256)": {
        "details": "See {IERC721Enumerable-tokenByIndex}."
      },
      "tokenOfOwnerByIndex(address,uint256)": {
        "details": "See {IERC721Enumerable-tokenOfOwnerByIndex}."
      },
      "tokenURI(uint256)": {
        "details": "See {IERC721Metadata-tokenURI}."
      },
      "totalSupply()": {
        "details": "See {IERC721Enumerable-totalSupply}."
      },
      "transferFrom(address,address,uint256)": {
        "details": "See {IERC721-transferFrom}."
      },
      "transferOwnership(address)": {
        "details": "Transfers ownership of the contract to a new account (`newOwner`). Can only be called by the current owner."
      }
    },
    "version": 1
  },
  "userdoc": {
    "kind": "user",
    "methods": {},
    "version": 1
  },
  "storageLayout": {
    "storage": [
      {
        "astId": 841,
        "contract": "contracts/NFT.sol:NFT",
        "label": "_name",
        "offset": 0,
        "slot": "0",
        "type": "t_string_storage"
      },
      {
        "astId": 843,
        "contract": "contracts/NFT.sol:NFT",
        "label": "_symbol",
        "offset": 0,
        "slot": "1",
        "type": "t_string_storage"
      },
      {
        "astId": 847,
        "contract": "contracts/NFT.sol:NFT",
        "label": "_owners",
        "offset": 0,
        "slot": "2",
        "type": "t_mapping(t_uint256,t_address)"
      },
      {
        "astId": 851,
        "contract": "contracts/NFT.sol:NFT",
        "label": "_balances",
        "offset": 0,
        "slot": "3",
        "type": "t_mapping(t_address,t_uint256)"
      },
      {
        "astId": 855,
        "contract": "contracts/NFT.sol:NFT",
        "label": "_tokenApprovals",
        "offset": 0,
        "slot": "4",
        "type": "t_mapping(t_uint256,t_address)"
      },
      {
        "astId": 861,
        "contract": "contracts/NFT.sol:NFT",
        "label": "_operatorApprovals",
        "offset": 0,
        "slot": "5",
        "type": "t_mapping(t_address,t_mapping(t_address,t_bool))"
      },
      {
        "astId": 1795,
        "contract": "contracts/NFT.sol:NFT",
        "label": "_ownedTokens",
        "offset": 0,
        "slot": "6",
        "type": "t_mapping(t_address,t_mapping(t_uint256,t_uint256))"
      },
      {
        "astId": 1799,
        "contract": "contracts/NFT.sol:NFT",
        "label": "_ownedTokensIndex",
        "offset": 0,
        "slot": "7",
        "type": "t_mapping(t_uint256,t_uint256)"
      },
      {
        "astId": 1802,
        "contract": "contracts/NFT.sol:NFT",
        "label": "_allTokens",
        "offset": 0,
        "slot": "8",
        "type": "t_array(t_uint256)dyn_storage"
      },
      {
        "astId": 1806,
        "contract": "contracts/NFT.sol:NFT",
        "label": "_allTokensIndex",
        "offset": 0,
        "slot": "9",
        "type": "t_mapping(t_uint256,t_uint256)"
      },
      {
        "astId": 7,
        "contract": "contracts/NFT.sol:NFT",
        "label": "_owner",
        "offset": 0,
        "slot": "10",
        "type": "t_address"
      },
      {
        "astId": 2750,
        "contract": "contracts/NFT.sol:NFT",
        "label": "maxSupply",
        "offset": 0,
        "slot": "11",
        "type": "t_uint256"
      },
      {
        "astId": 2752,
        "contract": "contracts/NFT.sol:NFT",
        "label": "price",
        "offset": 0,
        "slot": "12",
        "type": "t_uint256"
      },
      {
        "astId": 2755,
        "contract": "contracts/NFT.sol:NFT",
        "label": "nextTokenId",
        "offset": 0,
        "slot": "13",
        "type": "t_uint256"
      },
      {
        "astId": 2759,
        "contract": "contracts/NFT.sol:NFT",
        "label": "claimed",
        "offset": 0,
        "slot": "14",
        "type": "t_mapping(t_uint256,t_uint256)"
      },
      {
        "astId": 2762,
        "contract": "contracts/NFT.sol:NFT",
        "label": "frogNFT",
        "offset": 0,
        "slot": "15",
        "type": "t_contract(IERC721)1762"
      },
      {
        "astId": 2764,
        "contract": "contracts/NFT.sol:NFT",
        "label": "farmAddress",
        "offset": 0,
        "slot": "16",
        "type": "t_address"
      },
      {
        "astId": 2766,
        "contract": "contracts/NFT.sol:NFT",
        "label": "teamAddress",
        "offset": 0,
        "slot": "17",
        "type": "t_address"
      },
      {
        "astId": 2783,
        "contract": "contracts/NFT.sol:NFT",
        "label": "_tokenURI",
        "offset": 0,
        "slot": "18",
        "type": "t_string_storage"
      }
    ],
    "types": {
      "t_address": {
        "encoding": "inplace",
        "label": "address",
        "numberOfBytes": "20"
      },
      "t_array(t_uint256)dyn_storage": {
        "base": "t_uint256",
        "encoding": "dynamic_array",
        "label": "uint256[]",
        "numberOfBytes": "32"
      },
      "t_bool": {
        "encoding": "inplace",
        "label": "bool",
        "numberOfBytes": "1"
      },
      "t_contract(IERC721)1762": {
        "encoding": "inplace",
        "label": "contract IERC721",
        "numberOfBytes": "20"
      },
      "t_mapping(t_address,t_bool)": {
        "encoding": "mapping",
        "key": "t_address",
        "label": "mapping(address => bool)",
        "numberOfBytes": "32",
        "value": "t_bool"
      },
      "t_mapping(t_address,t_mapping(t_address,t_bool))": {
        "encoding": "mapping",
        "key": "t_address",
        "label": "mapping(address => mapping(address => bool))",
        "numberOfBytes": "32",
        "value": "t_mapping(t_address,t_bool)"
      },
      "t_mapping(t_address,t_mapping(t_uint256,t_uint256))": {
        "encoding": "mapping",
        "key": "t_address",
        "label": "mapping(address => mapping(uint256 => uint256))",
        "numberOfBytes": "32",
        "value": "t_mapping(t_uint256,t_uint256)"
      },
      "t_mapping(t_address,t_uint256)": {
        "encoding": "mapping",
        "key": "t_address",
        "label": "mapping(address => uint256)",
        "numberOfBytes": "32",
        "value": "t_uint256"
      },
      "t_mapping(t_uint256,t_address)": {
        "encoding": "mapping",
        "key": "t_uint256",
        "label": "mapping(uint256 => address)",
        "numberOfBytes": "32",
        "value": "t_address"
      },
      "t_mapping(t_uint256,t_uint256)": {
        "encoding": "mapping",
        "key": "t_uint256",
        "label": "mapping(uint256 => uint256)",
        "numberOfBytes": "32",
        "value": "t_uint256"
      },
      "t_string_storage": {
        "encoding": "bytes",
        "label": "string",
        "numberOfBytes": "32"
      },
      "t_uint256": {
        "encoding": "inplace",
        "label": "uint256",
        "numberOfBytes": "32"
      }
    }
  }
}