{
  "address": "0xB7f8BC63BbcaD18155201308C8f3540b07f84F5e",
  "abi": [
    {
      "name": "CommitOwnership",
      "inputs": [
        {
          "type": "address",
          "name": "admin",
          "indexed": false
        }
      ],
      "anonymous": false,
      "type": "event"
    },
    {
      "name": "ApplyOwnership",
      "inputs": [
        {
          "type": "address",
          "name": "admin",
          "indexed": false
        }
      ],
      "anonymous": false,
      "type": "event"
    },
    {
      "name": "Deposit",
      "inputs": [
        {
          "type": "address",
          "name": "provider",
          "indexed": true
        },
        {
          "type": "uint256",
          "name": "value",
          "indexed": false
        },
        {
          "type": "uint256",
          "name": "locktime",
          "indexed": true
        },
        {
          "type": "int128",
          "name": "type",
          "indexed": false
        },
        {
          "type": "uint256",
          "name": "ts",
          "indexed": false
        }
      ],
      "anonymous": false,
      "type": "event"
    },
    {
      "name": "Withdraw",
      "inputs": [
        {
          "type": "address",
          "name": "provider",
          "indexed": true
        },
        {
          "type": "uint256",
          "name": "value",
          "indexed": false
        },
        {
          "type": "uint256",
          "name": "ts",
          "indexed": false
        }
      ],
      "anonymous": false,
      "type": "event"
    },
    {
      "name": "Supply",
      "inputs": [
        {
          "type": "uint256",
          "name": "prevSupply",
          "indexed": false
        },
        {
          "type": "uint256",
          "name": "supply",
          "indexed": false
        }
      ],
      "anonymous": false,
      "type": "event"
    },
    {
      "outputs": [],
      "inputs": [
        {
          "type": "address",
          "name": "token_addr"
        },
        {
          "type": "string",
          "name": "_name"
        },
        {
          "type": "string",
          "name": "_symbol"
        },
        {
          "type": "string",
          "name": "_version"
        }
      ],
      "stateMutability": "nonpayable",
      "type": "constructor"
    },
    {
      "name": "commit_transfer_ownership",
      "outputs": [],
      "inputs": [
        {
          "type": "address",
          "name": "addr"
        }
      ],
      "stateMutability": "nonpayable",
      "type": "function",
      "gas": 37568
    },
    {
      "name": "apply_transfer_ownership",
      "outputs": [],
      "inputs": [],
      "stateMutability": "nonpayable",
      "type": "function",
      "gas": 38407
    },
    {
      "name": "commit_smart_wallet_checker",
      "outputs": [],
      "inputs": [
        {
          "type": "address",
          "name": "addr"
        }
      ],
      "stateMutability": "nonpayable",
      "type": "function",
      "gas": 36278
    },
    {
      "name": "apply_smart_wallet_checker",
      "outputs": [],
      "inputs": [],
      "stateMutability": "nonpayable",
      "type": "function",
      "gas": 37005
    },
    {
      "name": "get_last_user_slope",
      "outputs": [
        {
          "type": "int128",
          "name": ""
        }
      ],
      "inputs": [
        {
          "type": "address",
          "name": "addr"
        }
      ],
      "stateMutability": "view",
      "type": "function",
      "gas": 2540
    },
    {
      "name": "user_point_history__ts",
      "outputs": [
        {
          "type": "uint256",
          "name": ""
        }
      ],
      "inputs": [
        {
          "type": "address",
          "name": "_addr"
        },
        {
          "type": "uint256",
          "name": "_idx"
        }
      ],
      "stateMutability": "view",
      "type": "function",
      "gas": 1643
    },
    {
      "name": "locked__end",
      "outputs": [
        {
          "type": "uint256",
          "name": ""
        }
      ],
      "inputs": [
        {
          "type": "address",
          "name": "_addr"
        }
      ],
      "stateMutability": "view",
      "type": "function",
      "gas": 1564
    },
    {
      "name": "checkpoint",
      "outputs": [],
      "inputs": [],
      "stateMutability": "nonpayable",
      "type": "function",
      "gas": 37119546
    },
    {
      "name": "deposit_for",
      "outputs": [],
      "inputs": [
        {
          "type": "address",
          "name": "_addr"
        },
        {
          "type": "uint256",
          "name": "_tokenId"
        }
      ],
      "stateMutability": "nonpayable",
      "type": "function",
      "gas": 74787231
    },
    {
      "name": "create_lock",
      "outputs": [],
      "inputs": [
        {
          "type": "uint256",
          "name": "_tokenId"
        },
        {
          "type": "uint256",
          "name": "_unlock_time"
        }
      ],
      "stateMutability": "nonpayable",
      "type": "function",
      "gas": 74776710
    },
    {
      "name": "increase_amount",
      "outputs": [],
      "inputs": [
        {
          "type": "uint256",
          "name": "_tokenId"
        }
      ],
      "stateMutability": "nonpayable",
      "type": "function",
      "gas": 74775967
    },
    {
      "name": "increase_unlock_time",
      "outputs": [],
      "inputs": [
        {
          "type": "uint256",
          "name": "_unlock_time"
        }
      ],
      "stateMutability": "nonpayable",
      "type": "function",
      "gas": 74776711
    },
    {
      "name": "withdraw",
      "outputs": [],
      "inputs": [],
      "stateMutability": "nonpayable",
      "type": "function",
      "gas": 37692937
    },
    {
      "name": "balanceOf",
      "outputs": [
        {
          "type": "uint256",
          "name": ""
        }
      ],
      "inputs": [
        {
          "type": "address",
          "name": "addr"
        }
      ],
      "stateMutability": "view",
      "type": "function"
    },
    {
      "name": "balanceOf",
      "outputs": [
        {
          "type": "uint256",
          "name": ""
        }
      ],
      "inputs": [
        {
          "type": "address",
          "name": "addr"
        },
        {
          "type": "uint256",
          "name": "_t"
        }
      ],
      "stateMutability": "view",
      "type": "function"
    },
    {
      "name": "balanceOfAt",
      "outputs": [
        {
          "type": "uint256",
          "name": ""
        }
      ],
      "inputs": [
        {
          "type": "address",
          "name": "addr"
        },
        {
          "type": "uint256",
          "name": "_block"
        }
      ],
      "stateMutability": "view",
      "type": "function",
      "gas": 509566
    },
    {
      "name": "totalSupply",
      "outputs": [
        {
          "type": "uint256",
          "name": ""
        }
      ],
      "inputs": [],
      "stateMutability": "view",
      "type": "function"
    },
    {
      "name": "totalSupply",
      "outputs": [
        {
          "type": "uint256",
          "name": ""
        }
      ],
      "inputs": [
        {
          "type": "uint256",
          "name": "t"
        }
      ],
      "stateMutability": "view",
      "type": "function"
    },
    {
      "name": "totalSupplyAt",
      "outputs": [
        {
          "type": "uint256",
          "name": ""
        }
      ],
      "inputs": [
        {
          "type": "uint256",
          "name": "_block"
        }
      ],
      "stateMutability": "view",
      "type": "function",
      "gas": 879507
    },
    {
      "name": "changeController",
      "outputs": [],
      "inputs": [
        {
          "type": "address",
          "name": "_newController"
        }
      ],
      "stateMutability": "nonpayable",
      "type": "function",
      "gas": 36878
    },
    {
      "name": "token",
      "outputs": [
        {
          "type": "address",
          "name": ""
        }
      ],
      "inputs": [],
      "stateMutability": "view",
      "type": "function",
      "gas": 1751
    },
    {
      "name": "supply",
      "outputs": [
        {
          "type": "uint256",
          "name": ""
        }
      ],
      "inputs": [],
      "stateMutability": "view",
      "type": "function",
      "gas": 1781
    },
    {
      "name": "locked",
      "outputs": [
        {
          "type": "int128",
          "name": "amount"
        },
        {
          "type": "uint256[10]",
          "name": "locked_nfts"
        },
        {
          "type": "uint256",
          "name": "end"
        }
      ],
      "inputs": [
        {
          "type": "address",
          "name": "arg0"
        }
      ],
      "stateMutability": "view",
      "type": "function",
      "gas": 13914
    },
    {
      "name": "epoch",
      "outputs": [
        {
          "type": "uint256",
          "name": ""
        }
      ],
      "inputs": [],
      "stateMutability": "view",
      "type": "function",
      "gas": 1841
    },
    {
      "name": "point_history",
      "outputs": [
        {
          "type": "int128",
          "name": "bias"
        },
        {
          "type": "int128",
          "name": "slope"
        },
        {
          "type": "uint256",
          "name": "ts"
        },
        {
          "type": "uint256",
          "name": "blk"
        }
      ],
      "inputs": [
        {
          "type": "uint256",
          "name": "arg0"
        }
      ],
      "stateMutability": "view",
      "type": "function",
      "gas": 5178
    },
    {
      "name": "user_point_history",
      "outputs": [
        {
          "type": "int128",
          "name": "bias"
        },
        {
          "type": "int128",
          "name": "slope"
        },
        {
          "type": "uint256",
          "name": "ts"
        },
        {
          "type": "uint256",
          "name": "blk"
        }
      ],
      "inputs": [
        {
          "type": "address",
          "name": "arg0"
        },
        {
          "type": "uint256",
          "name": "arg1"
        }
      ],
      "stateMutability": "view",
      "type": "function",
      "gas": 5423
    },
    {
      "name": "user_point_epoch",
      "outputs": [
        {
          "type": "uint256",
          "name": ""
        }
      ],
      "inputs": [
        {
          "type": "address",
          "name": "arg0"
        }
      ],
      "stateMutability": "view",
      "type": "function",
      "gas": 2146
    },
    {
      "name": "slope_changes",
      "outputs": [
        {
          "type": "int128",
          "name": ""
        }
      ],
      "inputs": [
        {
          "type": "uint256",
          "name": "arg0"
        }
      ],
      "stateMutability": "view",
      "type": "function",
      "gas": 2076
    },
    {
      "name": "controller",
      "outputs": [
        {
          "type": "address",
          "name": ""
        }
      ],
      "inputs": [],
      "stateMutability": "view",
      "type": "function",
      "gas": 1991
    },
    {
      "name": "transfersEnabled",
      "outputs": [
        {
          "type": "bool",
          "name": ""
        }
      ],
      "inputs": [],
      "stateMutability": "view",
      "type": "function",
      "gas": 2021
    },
    {
      "name": "name",
      "outputs": [
        {
          "type": "string",
          "name": ""
        }
      ],
      "inputs": [],
      "stateMutability": "view",
      "type": "function",
      "gas": 8453
    },
    {
      "name": "symbol",
      "outputs": [
        {
          "type": "string",
          "name": ""
        }
      ],
      "inputs": [],
      "stateMutability": "view",
      "type": "function",
      "gas": 7506
    },
    {
      "name": "version",
      "outputs": [
        {
          "type": "string",
          "name": ""
        }
      ],
      "inputs": [],
      "stateMutability": "view",
      "type": "function",
      "gas": 7536
    },
    {
      "name": "decimals",
      "outputs": [
        {
          "type": "uint256",
          "name": ""
        }
      ],
      "inputs": [],
      "stateMutability": "view",
      "type": "function",
      "gas": 2141
    },
    {
      "name": "future_smart_wallet_checker",
      "outputs": [
        {
          "type": "address",
          "name": ""
        }
      ],
      "inputs": [],
      "stateMutability": "view",
      "type": "function",
      "gas": 2171
    },
    {
      "name": "smart_wallet_checker",
      "outputs": [
        {
          "type": "address",
          "name": ""
        }
      ],
      "inputs": [],
      "stateMutability": "view",
      "type": "function",
      "gas": 2201
    },
    {
      "name": "admin",
      "outputs": [
        {
          "type": "address",
          "name": ""
        }
      ],
      "inputs": [],
      "stateMutability": "view",
      "type": "function",
      "gas": 2231
    },
    {
      "name": "future_admin",
      "outputs": [
        {
          "type": "address",
          "name": ""
        }
      ],
      "inputs": [],
      "stateMutability": "view",
      "type": "function",
      "gas": 2261
    }
  ],
  "transactionHash": "0x1623637838348ee796ba88b2dc1d25d49cef71f22614829ba452d6f87f86b956",
  "args": [
    "0x8A791620dd6260079BF849Dc5567aDC3F2FdC318",
    "veNFT",
    "vNFT",
    "veNFT_1.0.0"
  ],
  "numDeployments": 1,
  "bytecode": "0x6f7fffffffffffffffffffffffffffffff604052608061416161014039602061416160c03960c05160a01c1561003457600080fd5b6060602060206141610160c03960c051614161016101c0396040602060206141610160c03960c05160040135111561006b57600080fd5b6040602060406141610160c03960c05161416101610240396020602060406141610160c03960c0516004013511156100a257600080fd5b6040602060606141610160c03960c051614161016102a0396020602060606141610160c03960c0516004013511156100d957600080fd5b3360105561014051600055436003600460c052602060c02060c052602060c0200155426002600460c052602060c02060c052602060c02001553360085560016009556101c080600a60c052602060c020602082510161012060006003818352015b8261012051602002111561014d5761016f565b61012051602002850151610120518501555b815160010180835281141561013a575b50505050505061024080600b60c052602060c020602082510161012060006002818352015b826101205160200211156101a7576101c9565b61012051602002850151610120518501555b8151600101808352811415610194575b5050505050506102a080600c60c052602060c020602082510161012060006002818352015b8261012051602002111561020157610223565b61012051602002850151610120518501555b81516001018083528114156101ee575b50505050505061414956341561000a57600080fd5b600436101561001857613f15565b600035601c526f7fffffffffffffffffffffffffffffff604052636b441a4060005114156100945760043560a01c1561005057600080fd5b601054331461005e57600080fd5b600435601155600435610140527f2f56810a6bf40af059b96d3aea4db54081f378029a518390491093a7b67032e96020610140a1005b636a1c05ae60005114156100ff5760105433146100b057600080fd5b60115461014052600061014051186100c757600080fd5b6101405160105561014051610160527febee2d5739011062cb4f14113f3b36bf0ffe3da5c0568f64189d1012a11891056020610160a1005b6357f901e260005114156101335760043560a01c1561011d57600080fd5b601054331461012b57600080fd5b600435600e55005b638e5b490f600051141561015757601054331461014f57600080fd5b600e54600f55005b600015610241575b61016052610140523261014051181561023b57600f546101805260006101805118156101d1576020610220602463c23697a86101a052610140516101c0526101bc6000610180515af16101b157600080fd5b601f3d116101be57600080fd5b60005061022051156101d05761016051565b5b6308c379a06101a05260206101c05260256101e0527f536d61727420636f6e7472616374206465706f7369746f7273206e6f7420616c610200527f6c6f776564000000000000000000000000000000000000000000000000000000610220526101e05060846101bcfd5b61016051565b637c74a17460005114156102b85760043560a01c1561025f57600080fd5b600660043560e05260c052604060c0205461014052600161014051633b9aca00811061028a57600080fd5b600560043560e05260c052604060c02060c052602060c0200160c052602060c020015460005260206000f350005b63da020a1860005114156103195760043560a01c156102d657600080fd5b6002602435633b9aca0081106102eb57600080fd5b600560043560e05260c052604060c02060c052602060c0200160c052602060c020015460005260206000f350005b63adc63589600051141561035e5760043560a01c1561033757600080fd5b6002600260043560e05260c052604060c02060c052602060c020015460005260206000f350005b600015610c36575b610460526101405261016052610180526101a0526101c0526101e05261020052610220526102405261026052610280526102a0526102c0526102e05261030052610320526103405261036052610380526103a0526103c0526103e05261040052610420526104405261014036610480376003546105c052600061014051181561058557426102c05111156104005760006101605113610403565b60005b1561048c57610160516303c267008082058080600081121561042157195b607f1c1561042e57600080fd5b9050905090506104a0526104a0516102c051428082101561044e57600080fd5b8082039050905060405181111561046457600080fd5b8082028080600081121561047457195b607f1c1561048157600080fd5b905090509050610480525b426104405111156104a35760006102e051136104a6565b60005b1561052f576102e0516303c26700808205808060008112156104c457195b607f1c156104d157600080fd5b90509050905061052052610520516104405142808210156104f157600080fd5b8082039050905060405181111561050757600080fd5b8082028080600081121561051757195b607f1c1561052457600080fd5b905090509050610500525b60076102c05160e05260c052604060c02054610580526000610440511815610584576102c05161044051141561056c57610580516105a052610583565b60076104405160e05260c052604060c020546105a0525b5b5b6105e060008152600081602001524281604001524381606001525060006105c051111561061c576105e06105c0516c01431e0fae6d7217caa000000081106105cc57600080fd5b600460c052602060c020018060c052602060c02054825260018160c052602060c0200154826020015260028160c052602060c0200154826040015260038160c052602060c0200154826060015250505b61062051610660526106806105e0805182528060200151826020015280604001518260400152806060015182606001525050600061070052610620514211156106cb57670de0b6b3a764000043610640518082101561067a57600080fd5b80820390509050808202821582848304141761069557600080fd5b809050905090504261062051808210156106ae57600080fd5b8082039050905080806106c057600080fd5b820490509050610700525b6106605162093a808082049050905062093a8080820282158284830414176106f257600080fd5b8090509050905061072052610740600060ff818352015b610720805162093a8081818301101561072157600080fd5b808201905090508152506000610760524261072051111561074657426107205261075d565b60076107205160e05260c052604060c02054610760525b6105e080516106005161072051610660518082101561077b57600080fd5b8082039050905060405181111561079157600080fd5b808202808060008112156107a157195b607f1c156107ae57600080fd5b905090509050808203808060008112156107c457195b607f1c156107d157600080fd5b905090509050815250610600805161076051808201808060008112156107f357195b607f1c1561080057600080fd5b90509050905081525060006105e051121561081c5760006105e0525b600061060051121561082f576000610600525b610720516106605261072051610620526106e05161070051610720516106c0518082101561085c57600080fd5b80820390509050808202821582848304141761087757600080fd5b80905090509050670de0b6b3a76400008082049050905081818301101561089d57600080fd5b80820190509050610640526105c0805160018181830110156108be57600080fd5b80820190509050815250426107205114156108e157436106405261094a56610939565b6105c0516c01431e0fae6d7217caa000000081106108fe57600080fd5b600460c052602060c0200160c052602060c0206105e08051825580602001516001830155806040015160028301558060600151600383015550505b5b8151600101808352811415610709575b50506105c0516003556000610140511815610a32576106008051610520516104a0518082038080600081121561097c57195b607f1c1561098957600080fd5b9050905090508082018080600081121561099f57195b607f1c156109ac57600080fd5b9050905090508152506105e080516105005161048051808203808060008112156109d257195b607f1c156109df57600080fd5b905090509050808201808060008112156109f557195b607f1c15610a0257600080fd5b9050905090508152506000610600511215610a1e576000610600525b60006105e0511215610a315760006105e0525b5b6105c0516c01431e0fae6d7217caa00000008110610a4f57600080fd5b600460c052602060c0200160c052602060c0206105e08051825580602001516001830155806040015160028301558060600151600383015550506000610140511815610c3057426102c0511115610b245761058080516104a05180820180806000811215610ab957195b607f1c15610ac657600080fd5b9050905090508152506102c051610440511415610b0d5761058080516105205180820380806000811215610af657195b607f1c15610b0357600080fd5b9050905090508152505b6105805160076102c05160e05260c052604060c020555b42610440511115610b84576102c051610440511115610b83576105a080516105205180820380806000811215610b5657195b607f1c15610b6357600080fd5b9050905090508152506105a05160076104405160e05260c052604060c020555b5b60066101405160e05260c052604060c020546001818183011015610ba757600080fd5b80820190509050610740526107405160066101405160e05260c052604060c020554261054052436105605261074051633b9aca008110610be657600080fd5b60056101405160e05260c052604060c02060c052602060c0200160c052602060c0206105008051825580602001516001830155806040015160028301558060600151600383015550505b61046051565b60001561123e575b610340526101405261016052610180526101a0526101c0526101e05261020052610220526102405261026052610280526102a0526102c0526102e05261030052610320526103606101a080518252816020018160200180518252806020015182602001528060400151826040015280606001518260600152806080015182608001528060a001518260a001528060c001518260c001528060e001518260e00152806101000151826101000152806101200151826101200152505080610160015182610160015250506001546104e0526104e0516001818183011015610d2257600080fd5b8082019050905060015561050061036080518252816020018160200180518252806020015182602001528060400151826040015280606001518260600152806080015182608001528060a001518260a001528060c001518260c001528060e001518260e00152806101000151826101000152806101200151826101200152505080610160015182610160015250506103608051600180820180806000811215610dc757195b607f1c15610dd457600080fd5b9050905090508152506000610180511815610df257610180516104c0525b60026101405160e05260c052604060c02060c052602060c020610360805182556001820160c052602060c0208160200180518255806020015160018301558060400151600283015580606001516003830155806080015160048301558060a0015160058301558060c0015160068301558060e001516007830155806101000151600883015580610120015160098301555050806101600151600283015550506101405161016051610180516101a0516101c0516101e05161020051610220516102405161026051610280516102a0516102c0516102e05161030051610320516103405161036051610380516103a0516103c0516103e05161040051610420516104405161046051610480516104a0516104c0516104e05161050051610520516105405161056051610580516105a0516105c0516105e0516106005161062051610640516106605161014051610680526106a061050080518252816020018160200180518252806020015182602001528060400151826040015280606001518260600152806080015182608001528060a001518260a001528060c001518260c001528060e001518260e001528061010001518261010001528061012001518261012001525050806101600151826101600152505061082061036080518252816020018160200180518252806020015182602001528060400151826040015280606001518260600152806080015182608001528060a001518260a001528060c001518260c001528060e001518260e001528061010001518261010001528061012001518261012001525050806101600151826101600152505061098051610960516109405161092051610900516108e0516108c0516108a05161088051610860516108405161082051610800516107e0516107c0516107a05161078051610760516107405161072051610700516106e0516106c0516106a0516106805160065801610366565b610660526106405261062052610600526105e0526105c0526105a05261058052610560526105405261052052610500526104e0526104c0526104a05261048052610460526104405261042052610400526103e0526103c0526103a05261038052610360526103405261032052610300526102e0526102c0526102a05261028052610260526102405261022052610200526101e0526101c0526101a0526101805261016052610140526000506000543b61116e57600080fd5b6000600060646323b872dd61068052610140516106a052306106c052610160516106e05261069c60006000545af16111a557600080fd5b6101605161068052610320516106a052426106c0526104c051610140517f4566dfc29f6f11d13a418c26a02bef7c28bae749d4de47e4e6a7cddea6730d596060610680a36104e051610680526104e051600181818301101561120657600080fd5b808201905090506106a0527f5e2aa66efd74cce82b21852e317e5490d9ecc9e6bb953ae24d90851258cc2f5c6040610680a161034051565b63c2c4c5c1600051141561149c576101803661014037610180366102c0376101405161016051610180516101a0516101c0516101e05161020051610220516102405161026051610280516102a0516102c0516102e05161030051610320516103405161036051610380516103a0516103c0516103e051610400516104205160006104405261046061014080518252816020018160200180518252806020015182602001528060400151826040015280606001518260600152806080015182608001528060a001518260a001528060c001518260c001528060e001518260e00152806101000151826101000152806101200151826101200152505080610160015182610160015250506105e06102c080518252816020018160200180518252806020015182602001528060400151826040015280606001518260600152806080015182608001528060a001518260a001528060c001518260c001528060e001518260e00152806101000151826101000152806101200151826101200152505080610160015182610160015250506107405161072051610700516106e0516106c0516106a05161068051610660516106405161062051610600516105e0516105c0516105a05161058051610560516105405161052051610500516104e0516104c0516104a05161048051610460516104405160065801610366565b61042052610400526103e0526103c0526103a05261038052610360526103405261032052610300526102e0526102c0526102a05261028052610260526102405261022052610200526101e0526101c0526101a052610180526101605261014052600050005b633a46273e60005114156118955762ffffff54156114b957600080fd5b600162ffffff5560043560a01c156114d057600080fd5b610140600260043560e05260c052604060c0208060c052602060c0205482528160200160018260c052602060c020018060c052602060c02054825260018160c052602060c0200154826020015260028160c052602060c0200154826040015260038160c052602060c0200154826060015260048160c052602060c0200154826080015260058160c052602060c02001548260a0015260068160c052602060c02001548260c0015260078160c052602060c02001548260e0015260088160c052602060c020015482610100015260098160c052602060c0200154826101200152505060028160c052602060c020015482610160015250506000543b6115d357600080fd5b6000600060646323b872dd6102c0526004356102e0523061030052602435610320526102dc60006000545af161160857600080fd5b60006101405113151561165a576308c379a06102c05260206102e0526016610300527f4e6f206578697374696e67206c6f636b20666f756e6400000000000000000000610320526103005060646102dcfd5b426102a0511115156116d0576308c379a06102c05260206102e0526024610300527f43616e6e6f742061646420746f2065787069726564206c6f636b2e2057697468610320527f6472617700000000000000000000000000000000000000000000000000000000610340526103005060846102dcfd5b6101405161016051610180516101a0516101c0516101e05161020051610220516102405161026051610280516102a0516004356102c0526024356102e052600061030052610320600260043560e05260c052604060c0208060c052602060c0205482528160200160018260c052602060c020018060c052602060c02054825260018160c052602060c0200154826020015260028160c052602060c0200154826040015260038160c052602060c0200154826060015260048160c052602060c0200154826080015260058160c052602060c02001548260a0015260068160c052602060c02001548260c0015260078160c052602060c02001548260e0015260088160c052602060c020015482610100015260098160c052602060c0200154826101200152505060028160c052602060c0200154826101600152505060006104a0526104a05161048051610460516104405161042051610400516103e0516103c0516103a05161038051610360516103405161032051610300516102e0516102c05160065801610c3e565b6102a05261028052610260526102405261022052610200526101e0526101c0526101a052610180526101605261014052600050600062ffffff55005b6365fc38736000511415611c765762ffffff54156118b257600080fd5b600162ffffff553361014052610140516006580161015f565b60005060243562093a808082049050905062093a8080820282158284830414176118f457600080fd5b809050905090506101405261016060023360e05260c052604060c0208060c052602060c0205482528160200160018260c052602060c020018060c052602060c02054825260018160c052602060c0200154826020015260028160c052602060c0200154826040015260038160c052602060c0200154826060015260048160c052602060c0200154826080015260058160c052602060c02001548260a0015260068160c052602060c02001548260c0015260078160c052602060c02001548260e0015260088160c052602060c020015482610100015260098160c052602060c0200154826101200152505060028160c052602060c0200154826101600152505061016051151515611a43576308c379a06102e0526020610300526019610320527f5769746864726177206f6c6420746f6b656e7320666972737400000000000000610340526103205060646102fcfd5b4262127500818183011015611a5757600080fd5b8082019050905061014051111515611aae576308c379a06102e052602061030052601e610320527f566f74696e67206c6f636b2063616e2062652032207765656b73206d696e0000610340526103205060646102fcfd5b426303c26700818183011015611ac357600080fd5b808201905090506101405111151515611b1b576308c379a06102e052602061030052601e610320527f566f74696e67206c6f636b2063616e2062652032207965617273206d61780000610340526103205060646102fcfd5b6101405161016051610180516101a0516101c0516101e05161020051610220516102405161026051610280516102a0516102c051336102e05260043561030052610140516103205261034061016080518252816020018160200180518252806020015182602001528060400151826040015280606001518260600152806080015182608001528060a001518260a001528060c001518260c001528060e001518260e001528061010001518261010001528061012001518261012001525050806101600151826101600152505060016104c0526104c0516104a05161048051610460516104405161042051610400516103e0516103c0516103a05161038051610360516103405161032051610300516102e05160065801610c3e565b6102c0526102a05261028052610260526102405261022052610200526101e0526101c0526101a052610180526101605261014052600050600062ffffff55005b634957677c6000511415611fbc5762ffffff5415611c9357600080fd5b600162ffffff553361014052610140516006580161015f565b60005061014060023360e05260c052604060c0208060c052602060c0205482528160200160018260c052602060c020018060c052602060c02054825260018160c052602060c0200154826020015260028160c052602060c0200154826040015260038160c052602060c0200154826060015260048160c052602060c0200154826080015260058160c052602060c02001548260a0015260068160c052602060c02001548260c0015260078160c052602060c02001548260e0015260088160c052602060c020015482610100015260098160c052602060c0200154826101200152505060028160c052602060c02001548261016001525050600061014051131515611df5576308c379a06102c05260206102e0526016610300527f4e6f206578697374696e67206c6f636b20666f756e6400000000000000000000610320526103005060646102dcfd5b426102a051111515611e6b576308c379a06102c05260206102e0526024610300527f43616e6e6f742061646420746f2065787069726564206c6f636b2e2057697468610320527f6472617700000000000000000000000000000000000000000000000000000000610340526103005060846102dcfd5b6101405161016051610180516101a0516101c0516101e05161020051610220516102405161026051610280516102a051336102c0526004356102e05260006103005261032061014080518252816020018160200180518252806020015182602001528060400151826040015280606001518260600152806080015182608001528060a001518260a001528060c001518260c001528060e001518260e001528061010001518261010001528061012001518261012001525050806101600151826101600152505060026104a0526104a05161048051610460516104405161042051610400516103e0516103c0516103a05161038051610360516103405161032051610300516102e0516102c05160065801610c3e565b6102a05261028052610260526102405261022052610200526101e0526101c0526101a052610180526101605261014052600050600062ffffff55005b63eff7a61260005114156123d85762ffffff5415611fd957600080fd5b600162ffffff553361014052610140516006580161015f565b60005061014060023360e05260c052604060c0208060c052602060c0205482528160200160018260c052602060c020018060c052602060c02054825260018160c052602060c0200154826020015260028160c052602060c0200154826040015260038160c052602060c0200154826060015260048160c052602060c0200154826080015260058160c052602060c02001548260a0015260068160c052602060c02001548260c0015260078160c052602060c02001548260e0015260088160c052602060c020015482610100015260098160c052602060c0200154826101200152505060028160c052602060c0200154826101600152505060043562093a808082049050905062093a80808202821582848304141761210f57600080fd5b809050905090506102c052426102a05111151561216b576308c379a06102e052602061030052600c610320527f4c6f636b20657870697265640000000000000000000000000000000000000000610340526103205060646102fcfd5b6000610140511315156121bd576308c379a06102e0526020610300526011610320527f4e6f7468696e67206973206c6f636b6564000000000000000000000000000000610340526103205060646102fcfd5b6102a0516102c051111515612211576308c379a06102e052602061030052601f610320527f43616e206f6e6c7920696e637265617365206c6f636b206475726174696f6e00610340526103205060646102fcfd5b426303c2670081818301101561222657600080fd5b808201905090506102c0511115151561227e576308c379a06102e052602061030052601e610320527f566f74696e67206c6f636b2063616e2062652034207965617273206d61780000610340526103205060646102fcfd5b6101405161016051610180516101a0516101c0516101e05161020051610220516102405161026051610280516102a0516102c051336102e0526000610300526102c0516103205261034061014080518252816020018160200180518252806020015182602001528060400151826040015280606001518260600152806080015182608001528060a001518260a001528060c001518260c001528060e001518260e001528061010001518261010001528061012001518261012001525050806101600151826101600152505060036104c0526104c0516104a05161048051610460516104405161042051610400516103e0516103c0516103a05161038051610360516103405161032051610300516102e05160065801610c3e565b6102c0526102a05261028052610260526102405261022052610200526101e0526101c0526101a052610180526101605261014052600050600062ffffff55005b633ccfd60b6000511415612a2a5762ffffff54156123f557600080fd5b600162ffffff5561014060023360e05260c052604060c0208060c052602060c0205482528160200160018260c052602060c020018060c052602060c02054825260018160c052602060c0200154826020015260028160c052602060c0200154826040015260038160c052602060c0200154826060015260048160c052602060c0200154826080015260058160c052602060c02001548260a0015260068160c052602060c02001548260c0015260078160c052602060c02001548260e0015260088160c052602060c020015482610100015260098160c052602060c0200154826101200152505060028160c052602060c020015482610160015250506102a0514210151515612542576308c379a06102c05260206102e0526016610300527f546865206c6f636b206469646e27742065787069726500000000000000000000610320526103005060646102dcfd5b61014051600081121561255457600080fd5b6102c0526102e061014080518252816020018160200180518252806020015182602001528060400151826040015280606001518260600152806080015182608001528060a001518260a001528060c001518260c001528060e001518260e001528061010001518261010001528061012001518261012001525050806101600151826101600152505060006102a05260006101405260023360e05260c052604060c02060c052602060c020610140805182556001820160c052602060c0208160200180518255806020015160018301558060400151600283015580606001516003830155806080015160048301558060a0015160058301558060c0015160068301558060e0015160078301558061010001516008830155806101200151600983015550508061016001516002830155505060015461046052610460516102c051808210156126a057600080fd5b808203905090506001556101405161016051610180516101a0516101c0516101e05161020051610220516102405161026051610280516102a0516102c0516102e05161030051610320516103405161036051610380516103a0516103c0516103e0516104005161042051610440516104605133610480526104a06102e080518252816020018160200180518252806020015182602001528060400151826040015280606001518260600152806080015182608001528060a001518260a001528060c001518260c001528060e001518260e001528061010001518261010001528061012001518261012001525050806101600151826101600152505061062061014080518252816020018160200180518252806020015182602001528060400151826040015280606001518260600152806080015182608001528060a001518260a001528060c001518260c001528060e001518260e001528061010001518261010001528061012001518261012001525050806101600151826101600152505061078051610760516107405161072051610700516106e0516106c0516106a05161068051610660516106405161062051610600516105e0516105c0516105a05161058051610560516105405161052051610500516104e0516104c0516104a0516104805160065801610366565b610460526104405261042052610400526103e0526103c0526103a05261038052610360526103405261032052610300526102e0526102c0526102a05261028052610260526102405261022052610200526101e0526101c0526101a0526101805261016052610140526000506104806000600a818352015b60206105606044632f745c596104c052336104e05261048051610500526104dc6000545afa61293157600080fd5b601f3d1161293e57600080fd5b600050610560516104a0526000543b61295657600080fd5b6000600060646323b872dd6104c052306104e05233610500526104a051610520526104dc60006000545af161298a57600080fd5b5b8151600101808352811415612903575b50506102c05161048052426104a052337ff279e6a1f5e320cca91135676d9cb6e44ca8a08c0b88342bcdb1144f6511b5686040610480a26104605161048052610460516102c051808210156129ef57600080fd5b808203905090506104a0527f5e2aa66efd74cce82b21852e317e5490d9ecc9e6bb953ae24d90851258cc2f5c6040610480a1600062ffffff55005b600015612b3f575b61018052610140526101605260006101a052610160516101c0526101e060006080818352015b6101c0516101a051101515612a6c57612b2b565b6101a0516101c051818183011015612a8357600080fd5b808201905090506001818183011015612a9b57600080fd5b8082019050905060028082049050905061020052610140516003610200516c01431e0fae6d7217caa00000008110612ad257600080fd5b600460c052602060c0200160c052602060c0200154111515612afb57610200516101a052612b1a565b61020051600180821015612b0e57600080fd5b808203905090506101c0525b5b8151600101808352811415612a58575b50506101a051600052600051610180515650005b6370a082316000511415612b57574261014052612b7c565b62fdd58e6000511415612b74576020602461014037600050612b7c565b600015612cdd575b60043560a01c15612b8c57600080fd5b600660043560e05260c052604060c0205461016052610160511515612bbb57600060005260206000f350612cdb565b61018061016051633b9aca008110612bd257600080fd5b600560043560e05260c052604060c02060c052602060c020018060c052602060c02054825260018160c052602060c0200154826020015260028160c052602060c0200154826040015260038160c052602060c02001548260600152505061018080516101a051610140516101c05180821015612c4d57600080fd5b80820390509050604051811115612c6357600080fd5b80820280806000811215612c7357195b607f1c15612c8057600080fd5b90509050905080820380806000811215612c9657195b607f1c15612ca357600080fd5b9050905090508152506000610180511215612cbf576000610180525b610180516000811215612cd157600080fd5b60005260206000f3505b005b634ee2cd7e60005114156131b65760043560a01c15612cfb57600080fd5b436024351115612d0a57600080fd5b600061014052600660043560e05260c052604060c020546101605261018060006080818352015b6101605161014051101515612d4557612e08565b6101405161016051818183011015612d5c57600080fd5b808201905090506001818183011015612d7457600080fd5b808201905090506002808204905090506101a05260243560036101a051633b9aca008110612da157600080fd5b600560043560e05260c052604060c02060c052602060c0200160c052602060c0200154111515612dd8576101a05161014052612df7565b6101a051600180821015612deb57600080fd5b80820390509050610160525b5b8151600101808352811415612d31575b505061018061014051633b9aca008110612e2157600080fd5b600560043560e05260c052604060c02060c052602060c020018060c052602060c02054825260018160c052602060c0200154826020015260028160c052602060c0200154826040015260038160c052602060c020015482606001525050600354610200526101405161016051610180516101a0516101c0516101e0516102005161022051602435610240526102005161026052610260516102405160065801612a32565b6102c05261022052610200526101e0526101c0526101a0526101805261016052610140526102c05161022052610240610220516c01431e0fae6d7217caa00000008110612f1157600080fd5b600460c052602060c020018060c052602060c02054825260018160c052602060c0200154826020015260028160c052602060c0200154826040015260038160c052602060c0200154826060015250506040366102c0376102005161022051101561304157610300610220516001818183011015612f8d57600080fd5b808201905090506c01431e0fae6d7217caa00000008110612fad57600080fd5b600460c052602060c020018060c052602060c02054825260018160c052602060c0200154826020015260028160c052602060c0200154826040015260038160c052602060c020015482606001525050610360516102a0518082101561301157600080fd5b808203905090506102c05261034051610280518082101561303157600080fd5b808203905090506102e05261307c565b436102a0518082101561305357600080fd5b808203905090506102c05242610280518082101561307057600080fd5b808203905090506102e0525b610280516103005260006102c05118156130fe5761030080516102e0516024356102a051808210156130ad57600080fd5b8082039050905080820282158284830414176130c857600080fd5b809050905090506102c05180806130de57600080fd5b8204905090508181830110156130f357600080fd5b808201905090508152505b61018080516101a051610300516101c0518082101561311c57600080fd5b8082039050905060405181111561313257600080fd5b8082028080600081121561314257195b607f1c1561314f57600080fd5b9050905090508082038080600081121561316557195b607f1c1561317257600080fd5b9050905090508152506000610180511215156131a85761018051600081121561319a57600080fd5b60005260206000f3506131b4565b600060005260206000f3505b005b6000156133a5575b6101e0526101405261016052610180526101a0526101c0526102006101408051825280602001518260200152806040015182604001528060600151826060015250506102405162093a808082049050905062093a80808202821582848304141761322757600080fd5b80905090509050610280526102a0600060ff818352015b610280805162093a8081818301101561325657600080fd5b8082019050905081525060006102c0526101c051610280511115613281576101c05161028052613298565b60076102805160e05260c052604060c020546102c0525b6102008051610220516102805161024051808210156132b657600080fd5b808203905090506040518111156132cc57600080fd5b808202808060008112156132dc57195b607f1c156132e957600080fd5b905090509050808203808060008112156132ff57195b607f1c1561330c57600080fd5b9050905090508152506101c05161028051141561332857613370565b61022080516102c0518082018080600081121561334157195b607f1c1561334e57600080fd5b90509050905081525061028051610240525b815160010180835281141561323e575b50506000610200511215613385576000610200525b61020051600081121561339757600080fd5b6000526000516101e0515650005b6318160ddd60005114156133bd5742610140526133e3565b63bd85b03960005114156133db5760206004610140376000506133e3565b6000156134eb575b60035461016052610180610160516c01431e0fae6d7217caa0000000811061340a57600080fd5b600460c052602060c020018060c052602060c02054825260018160c052602060c0200154826020015260028160c052602060c0200154826040015260038160c052602060c0200154826060015250506101405161016051610180516101a0516101c0516101e05161020061018080518252806020015182602001528060400151826040015280606001518260600152505061014051610280526102805161026051610240516102205161020051600658016131be565b6102e0526101e0526101c0526101a0526101805261016052610140526102e05160005260206000f350005b63981b24d0600051141561382a5743600435111561350857600080fd5b60035461014052610140516101605160043561018052610140516101a0526101a0516101805160065801612a32565b6102005261016052610140526102005161016052610180610160516c01431e0fae6d7217caa0000000811061356b57600080fd5b600460c052602060c020018060c052602060c02054825260018160c052602060c0200154826020015260028160c052602060c0200154826040015260038160c052602060c020015482606001525050600061020052610140516101605110156136ec576102206101605160018181830110156135e657600080fd5b808201905090506c01431e0fae6d7217caa0000000811061360657600080fd5b600460c052602060c020018060c052602060c02054825260018160c052602060c0200154826020015260028160c052602060c0200154826040015260038160c052602060c020015482606001525050610280516101e05118156136e7576004356101e0518082101561367757600080fd5b80820390509050610260516101c0518082101561369357600080fd5b8082039050905080820282158284830414176136ae57600080fd5b80905090509050610280516101e051808210156136ca57600080fd5b8082039050905080806136dc57600080fd5b820490509050610200525b613776565b436101e0511815613775576004356101e0518082101561370b57600080fd5b80820390509050426101c0518082101561372457600080fd5b80820390509050808202821582848304141761373f57600080fd5b80905090509050436101e0518082101561375857600080fd5b80820390509050808061376a57600080fd5b820490509050610200525b5b6101405161016051610180516101a0516101c0516101e051610200516102206101808051825280602001518260200152806040015182604001528060600151826060015250506101c051610200518181830110156137d357600080fd5b808201905090506102a0526102a05161028051610260516102405161022051600658016131be565b61030052610200526101e0526101c0526101a0526101805261016052610140526103005160005260206000f350005b633cebb823600051141561385e5760043560a01c1561384857600080fd5b600854331461385657600080fd5b600435600855005b63fc0c546a600051141561387a5760005460005260206000f350005b63047fc9aa60005114156138965760015460005260206000f350005b63cbf9fe5f6000511415613a705760043560a01c156138b457600080fd5b600260043560e05260c052604060c0206101408080808460c052602060c02054815250506020810190508080808060018760c052602060c0200160c052602060c02054815250506020810190508080600160018860c052602060c0200160c052602060c0200154815250506020810190508080600260018860c052602060c0200160c052602060c0200154815250506020810190508080600360018860c052602060c0200160c052602060c0200154815250506020810190508080600460018860c052602060c0200160c052602060c0200154815250506020810190508080600560018860c052602060c0200160c052602060c0200154815250506020810190508080600660018860c052602060c0200160c052602060c0200154815250506020810190508080600760018860c052602060c0200160c052602060c0200154815250506020810190508080600860018860c052602060c0200160c052602060c0200154815250506020810190508080600960018860c052602060c0200160c052602060c020015481525050505061014081019050808060028560c052602060c0200154815250506101809050905060c05260c051610140f39050005b63900cf0cf6000511415613a8c5760035460005260206000f350005b63d1febfb96000511415613b34576004356c01431e0fae6d7217caa00000008110613ab657600080fd5b600460c052602060c020016101408080808460c052602060c0205481525050602081019050808060018560c052602060c020015481525050602081019050808060028560c052602060c020015481525050602081019050808060038560c052602060c02001548152505060809050905060c05260c051610140f39050005b6328d09d476000511415613bf15760043560a01c15613b5257600080fd5b602435633b9aca008110613b6557600080fd5b600560043560e05260c052604060c02060c052602060c020016101408080808460c052602060c0205481525050602081019050808060018560c052602060c020015481525050602081019050808060028560c052602060c020015481525050602081019050808060038560c052602060c02001548152505060809050905060c05260c051610140f39050005b63010ae7576000511415613c2b5760043560a01c15613c0f57600080fd5b600660043560e05260c052604060c0205460005260206000f350005b63711974846000511415613c5557600760043560e05260c052604060c0205460005260206000f350005b63f77c47916000511415613c715760085460005260206000f350005b63bef97c876000511415613c8d5760095460005260206000f350005b6306fdde036000511415613d3657600a8060c052602060c020610180602082540161012060006003818352015b82610120516020021115613ccd57613cef565b61012051850154610120516020028501525b8151600101808352811415613cba575b50505050505061018051806101a001818260206001820306601f82010390500336823750506020610160526040610180510160206001820306601f8201039050610160f350005b6395d89b416000511415613ddf57600b8060c052602060c020610180602082540161012060006002818352015b82610120516020021115613d7657613d98565b61012051850154610120516020028501525b8151600101808352811415613d63575b50505050505061018051806101a001818260206001820306601f82010390500336823750506020610160526040610180510160206001820306601f8201039050610160f350005b6354fd4d506000511415613e8857600c8060c052602060c020610180602082540161012060006002818352015b82610120516020021115613e1f57613e41565b61012051850154610120516020028501525b8151600101808352811415613e0c575b50505050505061018051806101a001818260206001820306601f82010390500336823750506020610160526040610180510160206001820306601f8201039050610160f350005b63313ce5676000511415613ea457600d5460005260206000f350005b638ff36fd16000511415613ec057600e5460005260206000f350005b637175d4f76000511415613edc57600f5460005260206000f350005b63f851a4406000511415613ef85760105460005260206000f350005b6317f7182a6000511415613f145760115460005260206000f350005b5b60006000fd5b61022e6141490361022e60003961022e614149036000f3"
}